{
  "_format": "hh-sol-artifact-1",
  "contractName": "LadyNFT",
  "sourceName": "contracts/LadyNFT.sol",
  "abi": [
    {
      "inputs": [],
      "stateMutability": "nonpayable",
      "type": "constructor"
    },
    {
      "anonymous": false,
      "inputs": [
        {
          "indexed": true,
          "internalType": "address",
          "name": "owner",
          "type": "address"
        },
        {
          "indexed": true,
          "internalType": "address",
          "name": "approved",
          "type": "address"
        },
        {
          "indexed": true,
          "internalType": "uint256",
          "name": "tokenId",
          "type": "uint256"
        }
      ],
      "name": "Approval",
      "type": "event"
    },
    {
      "anonymous": false,
      "inputs": [
        {
          "indexed": true,
          "internalType": "address",
          "name": "owner",
          "type": "address"
        },
        {
          "indexed": true,
          "internalType": "address",
          "name": "operator",
          "type": "address"
        },
        {
          "indexed": false,
          "internalType": "bool",
          "name": "approved",
          "type": "bool"
        }
      ],
      "name": "ApprovalForAll",
      "type": "event"
    },
    {
      "anonymous": false,
      "inputs": [
        {
          "indexed": true,
          "internalType": "address",
          "name": "from",
          "type": "address"
        },
        {
          "indexed": true,
          "internalType": "address",
          "name": "to",
          "type": "address"
        },
        {
          "indexed": true,
          "internalType": "uint256",
          "name": "tokenId",
          "type": "uint256"
        }
      ],
      "name": "Transfer",
      "type": "event"
    },
    {
      "inputs": [
        {
          "internalType": "address",
          "name": "to",
          "type": "address"
        },
        {
          "internalType": "uint256",
          "name": "tokenId",
          "type": "uint256"
        }
      ],
      "name": "approve",
      "outputs": [],
      "stateMutability": "nonpayable",
      "type": "function"
    },
    {
      "inputs": [
        {
          "internalType": "address",
          "name": "owner",
          "type": "address"
        }
      ],
      "name": "balanceOf",
      "outputs": [
        {
          "internalType": "uint256",
          "name": "",
          "type": "uint256"
        }
      ],
      "stateMutability": "view",
      "type": "function"
    },
    {
      "inputs": [],
      "name": "currTokenId",
      "outputs": [
        {
          "internalType": "uint256",
          "name": "",
          "type": "uint256"
        }
      ],
      "stateMutability": "view",
      "type": "function"
    },
    {
      "inputs": [
        {
          "internalType": "uint256",
          "name": "tokenId",
          "type": "uint256"
        }
      ],
      "name": "getApproved",
      "outputs": [
        {
          "internalType": "address",
          "name": "",
          "type": "address"
        }
      ],
      "stateMutability": "view",
      "type": "function"
    },
    {
      "inputs": [
        {
          "internalType": "address",
          "name": "owner",
          "type": "address"
        },
        {
          "internalType": "address",
          "name": "operator",
          "type": "address"
        }
      ],
      "name": "isApprovedForAll",
      "outputs": [
        {
          "internalType": "bool",
          "name": "",
          "type": "bool"
        }
      ],
      "stateMutability": "view",
      "type": "function"
    },
    {
      "inputs": [],
      "name": "maxSupply",
      "outputs": [
        {
          "internalType": "uint256",
          "name": "",
          "type": "uint256"
        }
      ],
      "stateMutability": "view",
      "type": "function"
    },
    {
      "inputs": [],
      "name": "mint",
      "outputs": [],
      "stateMutability": "nonpayable",
      "type": "function"
    },
    {
      "inputs": [],
      "name": "name",
      "outputs": [
        {
          "internalType": "string",
          "name": "",
          "type": "string"
        }
      ],
      "stateMutability": "view",
      "type": "function"
    },
    {
      "inputs": [
        {
          "internalType": "uint256",
          "name": "tokenId",
          "type": "uint256"
        }
      ],
      "name": "ownerOf",
      "outputs": [
        {
          "internalType": "address",
          "name": "",
          "type": "address"
        }
      ],
      "stateMutability": "view",
      "type": "function"
    },
    {
      "inputs": [],
      "name": "remainingTokens",
      "outputs": [
        {
          "internalType": "uint256",
          "name": "",
          "type": "uint256"
        }
      ],
      "stateMutability": "view",
      "type": "function"
    },
    {
      "inputs": [
        {
          "internalType": "address",
          "name": "from",
          "type": "address"
        },
        {
          "internalType": "address",
          "name": "to",
          "type": "address"
        },
        {
          "internalType": "uint256",
          "name": "tokenId",
          "type": "uint256"
        }
      ],
      "name": "safeTransferFrom",
      "outputs": [],
      "stateMutability": "nonpayable",
      "type": "function"
    },
    {
      "inputs": [
        {
          "internalType": "address",
          "name": "from",
          "type": "address"
        },
        {
          "internalType": "address",
          "name": "to",
          "type": "address"
        },
        {
          "internalType": "uint256",
          "name": "tokenId",
          "type": "uint256"
        },
        {
          "internalType": "bytes",
          "name": "_data",
          "type": "bytes"
        }
      ],
      "name": "safeTransferFrom",
      "outputs": [],
      "stateMutability": "nonpayable",
      "type": "function"
    },
    {
      "inputs": [
        {
          "internalType": "address",
          "name": "operator",
          "type": "address"
        },
        {
          "internalType": "bool",
          "name": "approved",
          "type": "bool"
        }
      ],
      "name": "setApprovalForAll",
      "outputs": [],
      "stateMutability": "nonpayable",
      "type": "function"
    },
    {
      "inputs": [
        {
          "internalType": "bytes4",
          "name": "interfaceId",
          "type": "bytes4"
        }
      ],
      "name": "supportsInterface",
      "outputs": [
        {
          "internalType": "bool",
          "name": "",
          "type": "bool"
        }
      ],
      "stateMutability": "view",
      "type": "function"
    },
    {
      "inputs": [],
      "name": "symbol",
      "outputs": [
        {
          "internalType": "string",
          "name": "",
          "type": "string"
        }
      ],
      "stateMutability": "view",
      "type": "function"
    },
    {
      "inputs": [
        {
          "internalType": "uint256",
          "name": "tokenId",
          "type": "uint256"
        }
      ],
      "name": "tokenURI",
      "outputs": [
        {
          "internalType": "string",
          "name": "",
          "type": "string"
        }
      ],
      "stateMutability": "view",
      "type": "function"
    },
    {
      "inputs": [
        {
          "internalType": "address",
          "name": "from",
          "type": "address"
        },
        {
          "internalType": "address",
          "name": "to",
          "type": "address"
        },
        {
          "internalType": "uint256",
          "name": "tokenId",
          "type": "uint256"
        }
      ],
      "name": "transferFrom",
      "outputs": [],
      "stateMutability": "nonpayable",
      "type": "function"
    }
  ],
  "bytecode": "0x6080604052600060065560036007553480156200001b57600080fd5b506040518060400160405280600781526020017f4c6164794e4654000000000000000000000000000000000000000000000000008152506040518060400160405280600481526020017f4c4e4654000000000000000000000000000000000000000000000000000000008152508160009080519060200190620000a0929190620000c2565b508060019080519060200190620000b9929190620000c2565b505050620001d7565b828054620000d09062000172565b90600052602060002090601f016020900481019282620000f4576000855562000140565b82601f106200010f57805160ff191683800117855562000140565b8280016001018555821562000140579182015b828111156200013f57825182559160200191906001019062000122565b5b5090506200014f919062000153565b5090565b5b808211156200016e57600081600090555060010162000154565b5090565b600060028204905060018216806200018b57607f821691505b60208210811415620001a257620001a1620001a8565b5b50919050565b7f4e487b7100000000000000000000000000000000000000000000000000000000600052602260045260246000fd5b61288a80620001e76000396000f3fe608060405234801561001057600080fd5b506004361061010b5760003560e01c806370a08231116100a2578063bf58390311610071578063bf583903146102a2578063c87b56dd146102c0578063d5abeb01146102f0578063e1a6fb551461030e578063e985e9c51461032c5761010b565b806370a082311461021c57806395d89b411461024c578063a22cb4651461026a578063b88d4fde146102865761010b565b80631249c58b116100de5780631249c58b146101aa57806323b872dd146101b457806342842e0e146101d05780636352211e146101ec5761010b565b806301ffc9a71461011057806306fdde0314610140578063081812fc1461015e578063095ea7b31461018e575b600080fd5b61012a60048036038101906101259190611a20565b61035c565b6040516101379190611e03565b60405180910390f35b61014861043e565b6040516101559190611e1e565b60405180910390f35b61017860048036038101906101739190611a72565b6104d0565b6040516101859190611d9c565b60405180910390f35b6101a860048036038101906101a391906119e4565b610555565b005b6101b261066d565b005b6101ce60048036038101906101c991906118de565b6106d6565b005b6101ea60048036038101906101e591906118de565b610736565b005b61020660048036038101906102019190611a72565b610756565b6040516102139190611d9c565b60405180910390f35b61023660048036038101906102319190611879565b610808565b6040516102439190612020565b60405180910390f35b6102546108c0565b6040516102619190611e1e565b60405180910390f35b610284600480360381019061027f91906119a8565b610952565b005b6102a0600480360381019061029b919061192d565b610968565b005b6102aa6109ca565b6040516102b79190612020565b60405180910390f35b6102da60048036038101906102d59190611a72565b6109e1565b6040516102e79190611e1e565b60405180910390f35b6102f8610a88565b6040516103059190612020565b60405180910390f35b610316610a8e565b6040516103239190612020565b60405180910390f35b610346600480360381019061034191906118a2565b610a94565b6040516103539190611e03565b60405180910390f35b60007f80ac58cd000000000000000000000000000000000000000000000000000000007bffffffffffffffffffffffffffffffffffffffffffffffffffffffff1916827bffffffffffffffffffffffffffffffffffffffffffffffffffffffff1916148061042757507f5b5e139f000000000000000000000000000000000000000000000000000000007bffffffffffffffffffffffffffffffffffffffffffffffffffffffff1916827bffffffffffffffffffffffffffffffffffffffffffffffffffffffff1916145b80610437575061043682610b28565b5b9050919050565b60606000805461044d90612245565b80601f016020809104026020016040519081016040528092919081815260200182805461047990612245565b80156104c65780601f1061049b576101008083540402835291602001916104c6565b820191906000526020600020905b8154815290600101906020018083116104a957829003601f168201915b5050505050905090565b60006104db82610b92565b61051a576040517f08c379a000000000000000000000000000000000000000000000000000000000815260040161051190611f80565b60405180910390fd5b6004600083815260200190815260200160002060009054906101000a900473ffffffffffffffffffffffffffffffffffffffff169050919050565b600061056082610756565b90508073ffffffffffffffffffffffffffffffffffffffff168373ffffffffffffffffffffffffffffffffffffffff1614156105d1576040517f08c379a00000000000000000000000000000000000000000000000000000000081526004016105c890611fc0565b60405180910390fd5b8073ffffffffffffffffffffffffffffffffffffffff166105f0610bfe565b73ffffffffffffffffffffffffffffffffffffffff16148061061f575061061e81610619610bfe565b610a94565b5b61065e576040517f08c379a000000000000000000000000000000000000000000000000000000000815260040161065590611f00565b60405180910390fd5b6106688383610c06565b505050565b600754600654106106b3576040517f08c379a00000000000000000000000000000000000000000000000000000000081526004016106aa90612000565b60405180910390fd5b60016006546106c291906120d4565b6006819055506106d433600654610cbf565b565b6106e76106e1610bfe565b82610cdd565b610726576040517f08c379a000000000000000000000000000000000000000000000000000000000815260040161071d90611fe0565b60405180910390fd5b610731838383610dbb565b505050565b61075183838360405180602001604052806000815250610968565b505050565b6000806002600084815260200190815260200160002060009054906101000a900473ffffffffffffffffffffffffffffffffffffffff169050600073ffffffffffffffffffffffffffffffffffffffff168173ffffffffffffffffffffffffffffffffffffffff1614156107ff576040517f08c379a00000000000000000000000000000000000000000000000000000000081526004016107f690611f40565b60405180910390fd5b80915050919050565b60008073ffffffffffffffffffffffffffffffffffffffff168273ffffffffffffffffffffffffffffffffffffffff161415610879576040517f08c379a000000000000000000000000000000000000000000000000000000000815260040161087090611f20565b60405180910390fd5b600360008373ffffffffffffffffffffffffffffffffffffffff1673ffffffffffffffffffffffffffffffffffffffff168152602001908152602001600020549050919050565b6060600180546108cf90612245565b80601f01602080910402602001604051908101604052809291908181526020018280546108fb90612245565b80156109485780601f1061091d57610100808354040283529160200191610948565b820191906000526020600020905b81548152906001019060200180831161092b57829003601f168201915b5050505050905090565b61096461095d610bfe565b8383611022565b5050565b610979610973610bfe565b83610cdd565b6109b8576040517f08c379a00000000000000000000000000000000000000000000000000000000081526004016109af90611fe0565b60405180910390fd5b6109c48484848461118f565b50505050565b60006006546007546109dc919061215b565b905090565b60606109ec82610b92565b610a2b576040517f08c379a0000000000000000000000000000000000000000000000000000000008152600401610a2290611fa0565b60405180910390fd5b6000610a356111eb565b90506000815111610a555760405180602001604052806000815250610a80565b80610a5f84611202565b604051602001610a70929190611d78565b6040516020818303038152906040525b915050919050565b60075481565b60065481565b6000600560008473ffffffffffffffffffffffffffffffffffffffff1673ffffffffffffffffffffffffffffffffffffffff16815260200190815260200160002060008373ffffffffffffffffffffffffffffffffffffffff1673ffffffffffffffffffffffffffffffffffffffff16815260200190815260200160002060009054906101000a900460ff16905092915050565b60007f01ffc9a7000000000000000000000000000000000000000000000000000000007bffffffffffffffffffffffffffffffffffffffffffffffffffffffff1916827bffffffffffffffffffffffffffffffffffffffffffffffffffffffff1916149050919050565b60008073ffffffffffffffffffffffffffffffffffffffff166002600084815260200190815260200160002060009054906101000a900473ffffffffffffffffffffffffffffffffffffffff1673ffffffffffffffffffffffffffffffffffffffff1614159050919050565b600033905090565b816004600083815260200190815260200160002060006101000a81548173ffffffffffffffffffffffffffffffffffffffff021916908373ffffffffffffffffffffffffffffffffffffffff160217905550808273ffffffffffffffffffffffffffffffffffffffff16610c7983610756565b73ffffffffffffffffffffffffffffffffffffffff167f8c5be1e5ebec7d5bd14f71427d1e84f3dd0314c0f7b2291e5b200ac8c7c3b92560405160405180910390a45050565b610cd98282604051806020016040528060008152506113af565b5050565b6000610ce882610b92565b610d27576040517f08c379a0000000000000000000000000000000000000000000000000000000008152600401610d1e90611ee0565b60405180910390fd5b6000610d3283610756565b90508073ffffffffffffffffffffffffffffffffffffffff168473ffffffffffffffffffffffffffffffffffffffff161480610da157508373ffffffffffffffffffffffffffffffffffffffff16610d89846104d0565b73ffffffffffffffffffffffffffffffffffffffff16145b80610db25750610db18185610a94565b5b91505092915050565b8273ffffffffffffffffffffffffffffffffffffffff16610ddb82610756565b73ffffffffffffffffffffffffffffffffffffffff1614610e31576040517f08c379a0000000000000000000000000000000000000000000000000000000008152600401610e2890611e60565b60405180910390fd5b600073ffffffffffffffffffffffffffffffffffffffff168273ffffffffffffffffffffffffffffffffffffffff161415610ea1576040517f08c379a0000000000000000000000000000000000000000000000000000000008152600401610e9890611ea0565b60405180910390fd5b610eac83838361140a565b610eb7600082610c06565b6001600360008573ffffffffffffffffffffffffffffffffffffffff1673ffffffffffffffffffffffffffffffffffffffff1681526020019081526020016000206000828254610f07919061215b565b925050819055506001600360008473ffffffffffffffffffffffffffffffffffffffff1673ffffffffffffffffffffffffffffffffffffffff1681526020019081526020016000206000828254610f5e91906120d4565b92505081905550816002600083815260200190815260200160002060006101000a81548173ffffffffffffffffffffffffffffffffffffffff021916908373ffffffffffffffffffffffffffffffffffffffff160217905550808273ffffffffffffffffffffffffffffffffffffffff168473ffffffffffffffffffffffffffffffffffffffff167fddf252ad1be2c89b69c2b068fc378daa952ba7f163c4a11628f55a4df523b3ef60405160405180910390a461101d83838361140f565b505050565b8173ffffffffffffffffffffffffffffffffffffffff168373ffffffffffffffffffffffffffffffffffffffff161415611091576040517f08c379a000000000000000000000000000000000000000000000000000000000815260040161108890611ec0565b60405180910390fd5b80600560008573ffffffffffffffffffffffffffffffffffffffff1673ffffffffffffffffffffffffffffffffffffffff16815260200190815260200160002060008473ffffffffffffffffffffffffffffffffffffffff1673ffffffffffffffffffffffffffffffffffffffff16815260200190815260200160002060006101000a81548160ff0219169083151502179055508173ffffffffffffffffffffffffffffffffffffffff168373ffffffffffffffffffffffffffffffffffffffff167f17307eab39ab6107e8899845ad3d59bd9653f200f220920489ca2b5937696c31836040516111829190611e03565b60405180910390a3505050565b61119a848484610dbb565b6111a684848484611414565b6111e5576040517f08c379a00000000000000000000000000000000000000000000000000000000081526004016111dc90611e40565b60405180910390fd5b50505050565b606060405180602001604052806000815250905090565b6060600082141561124a576040518060400160405280600181526020017f300000000000000000000000000000000000000000000000000000000000000081525090506113aa565b600082905060005b6000821461127c578080611265906122a8565b915050600a82611275919061212a565b9150611252565b60008167ffffffffffffffff8111156112be577f4e487b7100000000000000000000000000000000000000000000000000000000600052604160045260246000fd5b6040519080825280601f01601f1916602001820160405280156112f05781602001600182028036833780820191505090505b5090505b600085146113a357600182611309919061215b565b9150600a8561131891906122f1565b603061132491906120d4565b60f81b818381518110611360577f4e487b7100000000000000000000000000000000000000000000000000000000600052603260045260246000fd5b60200101907effffffffffffffffffffffffffffffffffffffffffffffffffffffffffffff1916908160001a905350600a8561139c919061212a565b94506112f4565b8093505050505b919050565b6113b983836115ab565b6113c66000848484611414565b611405576040517f08c379a00000000000000000000000000000000000000000000000000000000081526004016113fc90611e40565b60405180910390fd5b505050565b505050565b505050565b60006114358473ffffffffffffffffffffffffffffffffffffffff16611785565b1561159e578373ffffffffffffffffffffffffffffffffffffffff1663150b7a0261145e610bfe565b8786866040518563ffffffff1660e01b81526004016114809493929190611db7565b602060405180830381600087803b15801561149a57600080fd5b505af19250505080156114cb57506040513d601f19601f820116820180604052508101906114c89190611a49565b60015b61154e573d80600081146114fb576040519150601f19603f3d011682016040523d82523d6000602084013e611500565b606091505b50600081511415611546576040517f08c379a000000000000000000000000000000000000000000000000000000000815260040161153d90611e40565b60405180910390fd5b805181602001fd5b63150b7a0260e01b7bffffffffffffffffffffffffffffffffffffffffffffffffffffffff1916817bffffffffffffffffffffffffffffffffffffffffffffffffffffffff1916149150506115a3565b600190505b949350505050565b600073ffffffffffffffffffffffffffffffffffffffff168273ffffffffffffffffffffffffffffffffffffffff16141561161b576040517f08c379a000000000000000000000000000000000000000000000000000000000815260040161161290611f60565b60405180910390fd5b61162481610b92565b15611664576040517f08c379a000000000000000000000000000000000000000000000000000000000815260040161165b90611e80565b60405180910390fd5b6116706000838361140a565b6001600360008473ffffffffffffffffffffffffffffffffffffffff1673ffffffffffffffffffffffffffffffffffffffff16815260200190815260200160002060008282546116c091906120d4565b92505081905550816002600083815260200190815260200160002060006101000a81548173ffffffffffffffffffffffffffffffffffffffff021916908373ffffffffffffffffffffffffffffffffffffffff160217905550808273ffffffffffffffffffffffffffffffffffffffff16600073ffffffffffffffffffffffffffffffffffffffff167fddf252ad1be2c89b69c2b068fc378daa952ba7f163c4a11628f55a4df523b3ef60405160405180910390a46117816000838361140f565b5050565b6000808273ffffffffffffffffffffffffffffffffffffffff163b119050919050565b60006117bb6117b684612060565b61203b565b9050828152602081018484840111156117d357600080fd5b6117de848285612203565b509392505050565b6000813590506117f5816127f8565b92915050565b60008135905061180a8161280f565b92915050565b60008135905061181f81612826565b92915050565b60008151905061183481612826565b92915050565b600082601f83011261184b57600080fd5b813561185b8482602086016117a8565b91505092915050565b6000813590506118738161283d565b92915050565b60006020828403121561188b57600080fd5b6000611899848285016117e6565b91505092915050565b600080604083850312156118b557600080fd5b60006118c3858286016117e6565b92505060206118d4858286016117e6565b9150509250929050565b6000806000606084860312156118f357600080fd5b6000611901868287016117e6565b9350506020611912868287016117e6565b925050604061192386828701611864565b9150509250925092565b6000806000806080858703121561194357600080fd5b6000611951878288016117e6565b9450506020611962878288016117e6565b935050604061197387828801611864565b925050606085013567ffffffffffffffff81111561199057600080fd5b61199c8782880161183a565b91505092959194509250565b600080604083850312156119bb57600080fd5b60006119c9858286016117e6565b92505060206119da858286016117fb565b9150509250929050565b600080604083850312156119f757600080fd5b6000611a05858286016117e6565b9250506020611a1685828601611864565b9150509250929050565b600060208284031215611a3257600080fd5b6000611a4084828501611810565b91505092915050565b600060208284031215611a5b57600080fd5b6000611a6984828501611825565b91505092915050565b600060208284031215611a8457600080fd5b6000611a9284828501611864565b91505092915050565b611aa48161218f565b82525050565b611ab3816121a1565b82525050565b6000611ac482612091565b611ace81856120a7565b9350611ade818560208601612212565b611ae7816123de565b840191505092915050565b6000611afd8261209c565b611b0781856120b8565b9350611b17818560208601612212565b611b20816123de565b840191505092915050565b6000611b368261209c565b611b4081856120c9565b9350611b50818560208601612212565b80840191505092915050565b6000611b696032836120b8565b9150611b74826123ef565b604082019050919050565b6000611b8c6025836120b8565b9150611b978261243e565b604082019050919050565b6000611baf601c836120b8565b9150611bba8261248d565b602082019050919050565b6000611bd26024836120b8565b9150611bdd826124b6565b604082019050919050565b6000611bf56019836120b8565b9150611c0082612505565b602082019050919050565b6000611c18602c836120b8565b9150611c238261252e565b604082019050919050565b6000611c3b6038836120b8565b9150611c468261257d565b604082019050919050565b6000611c5e602a836120b8565b9150611c69826125cc565b604082019050919050565b6000611c816029836120b8565b9150611c8c8261261b565b604082019050919050565b6000611ca46020836120b8565b9150611caf8261266a565b602082019050919050565b6000611cc7602c836120b8565b9150611cd282612693565b604082019050919050565b6000611cea602f836120b8565b9150611cf5826126e2565b604082019050919050565b6000611d0d6021836120b8565b9150611d1882612731565b604082019050919050565b6000611d306031836120b8565b9150611d3b82612780565b604082019050919050565b6000611d53601b836120b8565b9150611d5e826127cf565b602082019050919050565b611d72816121f9565b82525050565b6000611d848285611b2b565b9150611d908284611b2b565b91508190509392505050565b6000602082019050611db16000830184611a9b565b92915050565b6000608082019050611dcc6000830187611a9b565b611dd96020830186611a9b565b611de66040830185611d69565b8181036060830152611df88184611ab9565b905095945050505050565b6000602082019050611e186000830184611aaa565b92915050565b60006020820190508181036000830152611e388184611af2565b905092915050565b60006020820190508181036000830152611e5981611b5c565b9050919050565b60006020820190508181036000830152611e7981611b7f565b9050919050565b60006020820190508181036000830152611e9981611ba2565b9050919050565b60006020820190508181036000830152611eb981611bc5565b9050919050565b60006020820190508181036000830152611ed981611be8565b9050919050565b60006020820190508181036000830152611ef981611c0b565b9050919050565b60006020820190508181036000830152611f1981611c2e565b9050919050565b60006020820190508181036000830152611f3981611c51565b9050919050565b60006020820190508181036000830152611f5981611c74565b9050919050565b60006020820190508181036000830152611f7981611c97565b9050919050565b60006020820190508181036000830152611f9981611cba565b9050919050565b60006020820190508181036000830152611fb981611cdd565b9050919050565b60006020820190508181036000830152611fd981611d00565b9050919050565b60006020820190508181036000830152611ff981611d23565b9050919050565b6000602082019050818103600083015261201981611d46565b9050919050565b60006020820190506120356000830184611d69565b92915050565b6000612045612056565b90506120518282612277565b919050565b6000604051905090565b600067ffffffffffffffff82111561207b5761207a6123af565b5b612084826123de565b9050602081019050919050565b600081519050919050565b600081519050919050565b600082825260208201905092915050565b600082825260208201905092915050565b600081905092915050565b60006120df826121f9565b91506120ea836121f9565b9250827fffffffffffffffffffffffffffffffffffffffffffffffffffffffffffffffff0382111561211f5761211e612322565b5b828201905092915050565b6000612135826121f9565b9150612140836121f9565b9250826121505761214f612351565b5b828204905092915050565b6000612166826121f9565b9150612171836121f9565b92508282101561218457612183612322565b5b828203905092915050565b600061219a826121d9565b9050919050565b60008115159050919050565b60007fffffffff0000000000000000000000000000000000000000000000000000000082169050919050565b600073ffffffffffffffffffffffffffffffffffffffff82169050919050565b6000819050919050565b82818337600083830152505050565b60005b83811015612230578082015181840152602081019050612215565b8381111561223f576000848401525b50505050565b6000600282049050600182168061225d57607f821691505b6020821081141561227157612270612380565b5b50919050565b612280826123de565b810181811067ffffffffffffffff8211171561229f5761229e6123af565b5b80604052505050565b60006122b3826121f9565b91507fffffffffffffffffffffffffffffffffffffffffffffffffffffffffffffffff8214156122e6576122e5612322565b5b600182019050919050565b60006122fc826121f9565b9150612307836121f9565b92508261231757612316612351565b5b828206905092915050565b7f4e487b7100000000000000000000000000000000000000000000000000000000600052601160045260246000fd5b7f4e487b7100000000000000000000000000000000000000000000000000000000600052601260045260246000fd5b7f4e487b7100000000000000000000000000000000000000000000000000000000600052602260045260246000fd5b7f4e487b7100000000000000000000000000000000000000000000000000000000600052604160045260246000fd5b6000601f19601f8301169050919050565b7f4552433732313a207472616e7366657220746f206e6f6e20455243373231526560008201527f63656976657220696d706c656d656e7465720000000000000000000000000000602082015250565b7f4552433732313a207472616e736665722066726f6d20696e636f72726563742060008201527f6f776e6572000000000000000000000000000000000000000000000000000000602082015250565b7f4552433732313a20746f6b656e20616c7265616479206d696e74656400000000600082015250565b7f4552433732313a207472616e7366657220746f20746865207a65726f2061646460008201527f7265737300000000000000000000000000000000000000000000000000000000602082015250565b7f4552433732313a20617070726f766520746f2063616c6c657200000000000000600082015250565b7f4552433732313a206f70657261746f7220717565727920666f72206e6f6e657860008201527f697374656e7420746f6b656e0000000000000000000000000000000000000000602082015250565b7f4552433732313a20617070726f76652063616c6c6572206973206e6f74206f7760008201527f6e6572206e6f7220617070726f76656420666f7220616c6c0000000000000000602082015250565b7f4552433732313a2062616c616e636520717565727920666f7220746865207a6560008201527f726f206164647265737300000000000000000000000000000000000000000000602082015250565b7f4552433732313a206f776e657220717565727920666f72206e6f6e657869737460008201527f656e7420746f6b656e0000000000000000000000000000000000000000000000602082015250565b7f4552433732313a206d696e7420746f20746865207a65726f2061646472657373600082015250565b7f4552433732313a20617070726f76656420717565727920666f72206e6f6e657860008201527f697374656e7420746f6b656e0000000000000000000000000000000000000000602082015250565b7f4552433732314d657461646174613a2055524920717565727920666f72206e6f60008201527f6e6578697374656e7420746f6b656e0000000000000000000000000000000000602082015250565b7f4552433732313a20617070726f76616c20746f2063757272656e74206f776e6560008201527f7200000000000000000000000000000000000000000000000000000000000000602082015250565b7f4552433732313a207472616e736665722063616c6c6572206973206e6f74206f60008201527f776e6572206e6f7220617070726f766564000000000000000000000000000000602082015250565b7f416c6c20746f6b656e732068617665206265656e206d696e7465640000000000600082015250565b6128018161218f565b811461280c57600080fd5b50565b612818816121a1565b811461282357600080fd5b50565b61282f816121ad565b811461283a57600080fd5b50565b612846816121f9565b811461285157600080fd5b5056fea2646970667358221220b744f378832e99b2a99371b9697ceeca8ade414b59f646086e15fd6563d5eead64736f6c63430008040033",
  "linkReferences": {},
  "deployedLinkReferences": {}
}